:100000000C9463000C948B000C948B000C948B006C
:100010000C948B000C948B000C948B000C948B0034
:100020000C948B000C948B000C948B000C94B005FA
:100030000C948B000C948B000C948B000C948B0014
:100040000C946D060C948B000C94C7070C948B00D9
:100050000C948B000C948B000C948B000C948B00F4
:100060000C948B000C948B000000000024002700EF
:100070002A0000000000250028002B0000000000DE
:1000800023002600290004040404040404040202DA
:100090000202020203030303030301020408102007
:1000A0004080010204081020010204081020000012
:1000B0000007000201000003040600000000000029
:1000C00000009F01C30811241FBECFEFD8E0DEBFA0
:1000D000CDBF11E0A0E0B1E0E0EBF7E102C0059098
:1000E0000D92AE39B107D9F712E0AEE9B1E001C027
:1000F0001D92AC36B107E1F710E0C6ECD0E004C0C9
:100100002297FE010E94D20BC23CD107C9F70E9480
:10011000FD080C94D60B0C940000CF93DF93BC0128
:100120008230910510F462E070E0A0916A02B09113
:100130006B02ED01E0E0F0E040E050E021C088819A
:1001400099818617970769F48A819B81309719F006
:100150009383828304C090936B0280936A02FE01B2
:1001600034C06817790738F44115510519F0841720
:10017000950708F4AC01FE018A819B819C01E9018D
:100180002097E9F641155105A9F1CA01861B970B85
:10019000049708F4BA01E0E0F0E02AC08D919C9148
:1001A000119784179507F9F46417750781F412966F
:1001B0008D919C911397309719F09383828304C09B
:1001C00090936B0280936A02FD0132964CC0CA0183
:1001D000861B970BFD01E80FF91F6193719302973E
:1001E0008D939C9340C0FD01828193819C01D90134
:1001F0001097A1F68091680290916902892B41F4D1
:1002000080918401909185019093690280936802A6
:1002100040918601509187014115510541F44DB738
:100220005EB78091820190918301481B590B209108
:10023000680230916902CA01821B930B86179707E7
:1002400080F0AB014E5F5F4F8417950750F0420F6F
:10025000531F5093690240936802F90161937193AF
:1002600002C0E0E0F0E0CF01DF91CF910895CF939D
:10027000DF93009709F450C0EC0122971B821A8289
:10028000A0916A02B0916B02109709F140E050E032
:10029000AC17BD0708F1BB83AA83FE012191319100
:1002A000E20FF31FAE17BF0779F48D919C91119760
:1002B000280F391F2E5F3F4F3983288312968D9167
:1002C0009C9113979B838A834115510571F4D093B8
:1002D0006B02C0936A0220C012968D919C91139775
:1002E000AD01009711F0DC01D3CFFA01D383C283B3
:1002F00021913191E20FF31FCE17DF0769F4888156
:100300009981280F391F2E5F3F4FFA0131832083D7
:100310008A819B8193838283DF91CF910895FB0132
:10032000DC018D91019080190110D9F3990B08958A
:10033000FB01DC0101900D920020E1F708958EE9A8
:1003400091E00E9473040895DF92EF92FF920F9361
:100350001F93D82E7B0161E00E946F070027F7FCF6
:100360000095102FC801B7010E94B5068D2D60E0E1
:100370000E946F071F910F91FF90EF90DF900895FB
:100380000F931F938C01FC01808191810E943701A2
:10039000F80113821282158214821F910F91089521
:1003A000BF92CF92DF92EF92FF920F931F93DF9352
:1003B000CF93CDB7DEB72C970FB6F894DEBF0FBE44
:1003C000CDBF6C01B62E8E010F5F1F4FC80160E0DC
:1003D00071E00E94190BC601B8010E94EB0A7C0172
:1003E000C8010E94C001EF2839F0B092880186E070
:1003F00090E007E010E018C08E01095F1F4FC801B0
:1004000064E071E00E94190BC601B8010E94EB0A7A
:100410007C01C8010E94C001EF2831F0B09289012F
:1004200088E090E009E010E0BB2031F061E00E943C
:100430006F07802F61E005C060E00E946F07802F8A
:1004400060E00E946F072C960FB6F894DEBF0FBED7
:10045000CDBFCF91DF911F910F91FF90EF90DF9073
:10046000CF90BF900895BC018091A101882321F015
:1004700085E592E00E94730A0895FF920F931F93FF
:10048000DF93CF93CDB7DEB72C970FB6F894DEBFCE
:100490000FBECDBFF82E8E010F5F1F4FC80164E065
:1004A00071E00E94190BC8016F2D0E94D001C80194
:1004B0000E94C0018E01095F1F4F69E071E06F0D5E
:1004C000711DC8010E94190BC8010E943302C801A6
:1004D0000E94C0012C960FB6F894DEBF0FBECDBFB0
:1004E000CF91DF911F910F91FF900895FF920F938D
:1004F0001F93DF93CF93CDB7DEB72C970FB6F89449
:10050000DEBF0FBECDBFF82E8E010F5F1F4FC8019B
:1005100060E071E00E94190BC8016F2D0E94D001AC
:10052000C8010E94C0018E01095F1F4F6CE171E09C
:100530006F0D711DC8010E94190BC8010E94330282
:10054000C8010E94C0012C960FB6F894DEBF0FBE02
:10055000CDBFCF91DF911F910F91FF9008950F9321
:100560001F93DF93CF9300D000D000D0CDB7DEB77C
:100570008E010F5F1F4FC8016DE271E00E94190BE1
:10058000C8010E943302C8010E94C0018DE090E0C2
:1005900068EC70E00E94A40162E573E080E090E006
:1005A0000E94B50626960FB6F894DEBF0FBECDBFEB
:1005B000CF91DF911F910F9108950F931F93DF93B8
:1005C000CF9300D000D000D0CDB7DEB78E010F5F43
:1005D0001F4FC80169E371E00E94190BC8010E9416
:1005E0003302C8010E94C0018DE090E068EC70E029
:1005F0000E94A40162E573E080E090E00E94B506ED
:1006000026960FB6F894DEBF0FBECDBFCF91DF9117
:100610001F910F9108950F931F93DF93CF9300D0F5
:1006200000D000D0CDB7DEB78E010F5F1F4FC801DD
:1006300062E471E00E94190BC8010E943302C801F4
:100640000E94C00126960FB6F894DEBF0FBECDBF44
:10065000CF91DF911F910F9108950F931F93DF9317
:10066000CF9300D000D000D0CDB7DEB781E080932B
:10067000A1018E010F5F1F4FC8016CE471E00E9461
:10068000190BC8010E943302C8010E94C0012696BE
:100690000FB6F894DEBF0FBECDBFCF91DF911F9193
:1006A0000F9108950F931F93DF93CF9300D000D045
:1006B00000D0CDB7DEB78E010F5F1F4FC8016EE5CA
:1006C00071E00E94190BC8010E943302C8010E9408
:1006D000C0010EE911E0C80167E070E00E94C904A2
:1006E0006AEF70E080E090E00E94B5060E94DD02B3
:1006F000C80168E770E00E94C9046AEF70E080E01A
:1007000090E00E94B50626960FB6F894DEBF0FBEA5
:10071000CDBFCF91DF911F910F9108951F93182F97
:10072000843619F40E942D033FC0893619F40E94C3
:100730000B033AC0833619F40E94DD0235C08037BE
:1007400019F40E94AF0230C0823619F40E9452039D
:100750002BC0853611F481E003C0863621F480E099
:100760000E94760221C0873611F481E003C08836EA
:1007700021F480E00E943D0217C08091A1018823EE
:1007800099F085E592E06CE671E00E943B0985E511
:1007900092E0612F40E050E00E943D0A85E592E042
:1007A00065E771E00E94680A85E592E0612F40E00C
:1007B00050E00E947E0A1F91089585E592E00E9414
:1007C0005508892B31F085E592E00E9480088093DE
:1007D0008A0180918A018A3729F00E948E038AE774
:1007E00080938A010895EF92FF920F931F93DF93F6
:1007F000CF93CDB7DEB72C970FB6F894DEBF0FBE00
:10080000CDBF8DE061E00E9449078DE061E00E946C
:1008100049078EE9E82E81E0F82EC7016AE070E012
:1008200048EE53E020ED37E00E94310586E061E0BC
:100830000E94490787E061E00E9449078E010F5F2F
:100840001F4FC80160E071E00E94190BC80161E010
:100850000E94D001C8010E94C00188E061E00E94AE
:10086000490789E061E00E9449078E01095F1F4F37
:10087000C80164E071E00E94190BC80161E00E94A8
:10088000D001C8010E94C00105E512E0C80140E0A6
:1008900051EE60E070E00E94F80764E670E080E0EE
:1008A00090E00E94B506C70167E070E00E94C904AD
:1008B0006AEF70E080E090E00E94B506C70168E74B
:1008C00070E00E94C904C8010E94A4082C960FB6CB
:1008D000F894DEBF0FBECDBFCF91DF911F910F9176
:1008E000FF90EF900895FC018091A2018C3090F46C
:1008F00080838F5F8093A201815090E0FC01EE0F16
:10090000FF1FE80FF91FED55FE4F88EB9BE0928328
:10091000818308958FEF80830895FC0120812C301E
:10092000B8F58181992787FD909548E850E0481BEC
:10093000590B440F551F440F551F6417750784F05A
:100940008281992787FD909548E552E0481B590B15
:10095000440F551F440F551F641775070CF4AB0166
:1009600042505040CA01AA2797FDA095BA2F880F80
:10097000991FAA1FBB1F4FB7F89430E0F901EE0F83
:10098000FF1FE20FF31FED55FE4F928381834FBF90
:100990000895AF92BF92CF92DF92EF92FF920F93A2
:1009A0001F93CF93DF93EC019B0182E060327807C5
:1009B0000CF048C077FF03C020E030E005C0653B85
:1009C000710514F024EB30E000D000D0B901882785
:1009D00077FD8095982F2981332727FD3095E8E80A
:1009E000AE2EB12CA21AB30AAA0CBB1CAA0CBB1CBB
:1009F000CC24B7FCC094DC2CEA81FF27E7FDF095FE
:100A000028E532E02E1B3F0B220F331F220F331F2E
:100A1000442737FD4095542FEDB7FEB7218332832D
:100A20004383548320E030E040E050E004EBE02ECC
:100A3000F12C012D112D0E949A0A9B010F900F900D
:100A40000F900F90CE01B9010E948D04DF91CF91DC
:100A50001F910F91FF90EF90DF90CF90BF90AF90DC
:100A60000895CF92DF92EF92FF921F93CF93DF937F
:100A7000EC01162F7A01690188818C3008F064C07E
:100A8000862F61E00E944907888190E0FC01EE0F0B
:100A9000FF1FE80FF91FED55FE4F1F738081807C0B
:100AA000812B808380E292E08E199F0964E070E0E0
:100AB0000E946C0B698380E699E08C199D0964E0C3
:100AC00070E00E946C0B6A83A8818A2F6CE00E9400
:100AD000600B682F70E0AB01440F551F460F571F86
:100AE000440F551F440F551F20E030E0C901840F0B
:100AF000951FFC01EE0FFF1FE80FF91FED55FE4F8C
:100B0000808186FD15C02F5F3F4F2C30310571F776
:100B100024C01092800082E08093810010928500B2
:100B200010928400B19A80916F00826080936F0070
:100B30008A2F90E0FC01EE0FFF1FE80FF91FED5523
:100B4000FE4F8081806480838881DF91CF911F91E7
:100B5000FF90EF90DF90CF900895672BD1F2E8CF10
:100B60001F920F920FB60F9211242F933F934F9322
:100B70005F936F937F938F939F93AF93BF93EF9305
:100B8000FF938091C70187FF05C0109285001092E6
:100B900084002BC02091C701332727FD3095809119
:100BA000A20190E02817390704F58091C701992721
:100BB00087FD9095FC01EE0FFF1FE80FF91FED5523
:100BC000FE4F808186FF11C08091C701992787FD64
:100BD0009095FC01EE0FFF1FE80FF91FED55FE4F3A
:100BE00080818F7360E00E946F078091C7018F5FE3
:100BF0008093C7012091C701332727FD309580914D
:100C0000A20190E0281739070CF04EC08091C7016F
:100C10008C300CF049C02091840030918500809187
:100C2000C701992787FD9095FC01EE0FFF1FE80F84
:100C3000F91FED55FE4F81819281280F391F3093A6
:100C40008900209388008091C701992787FD90959E
:100C5000FC01EE0FFF1FE80FF91FED55FE4F8081DD
:100C600086FF2AC08091C701992787FD9095FC01D6
:100C7000EE0FFF1FE80FF91FED55FE4F80818F73B8
:100C800061E00E946F0718C080E49CE905C0809174
:100C90008400909185000496909389008093880049
:100CA0008FEF8093C70108C08091840090918500E8
:100CB00084549C4948F3EBCFFF91EF91BF91AF91E2
:100CC0009F918F917F916F915F914F913F912F9164
:100CD0000F900FBE0F901F9018951F920F920FB696
:100CE0000F9211242F933F938F939F93AF93BF93B2
:100CF0008091CC019091CD01A091CE01B091CF0116
:100D00003091D0010196A11DB11D232F2D5F2D37EC
:100D100020F02D570196A11DB11D2093D001809385
:100D2000CC019093CD01A093CE01B093CF018091DF
:100D3000C8019091C901A091CA01B091CB0101965F
:100D4000A11DB11D8093C8019093C901A093CA0150
:100D5000B093CB01BF91AF919F918F913F912F9114
:100D60000F900FBE0F901F9018959B01AC017FB79D
:100D7000F8948091C8019091C901A091CA01B091E5
:100D8000CB0166B5A89B05C06F3F19F00196A11D68
:100D9000B11D7FBFBA2FA92F982F8827860F911DCD
:100DA000A11DB11D62E0880F991FAA1FBB1F6A9584
:100DB000D1F7BC012DC0FFB7F8948091C801909184
:100DC000C901A091CA01B091CB01E6B5A89B05C0AD
:100DD000EF3F19F00196A11DB11DFFBFBA2FA92F3A
:100DE000982F88278E0F911DA11DB11DE2E0880F5D
:100DF000991FAA1FBB1FEA95D1F7861B970B885E28
:100E00009340C8F2215030404040504068517C4FE0
:100E1000211531054105510571F60895789484B581
:100E2000826084BD84B5816084BD85B5826085BDE6
:100E300085B5816085BDEEE6F0E0808181608083CC
:100E4000E1E8F0E0108280818260808380818160AF
:100E50008083E0E8F0E0808181608083E1EBF0E076
:100E6000808184608083E0EBF0E08081816080831A
:100E7000EAE7F0E080818460808380818260808303
:100E80008081816080838081806880831092C1002E
:100E90000895482F50E0CA0186569F4FFC012491C7
:100EA0004A575F4FFA0184918823C1F0E82FF0E0A0
:100EB000EE0FFF1FE859FF4FA591B491662341F44F
:100EC0009FB7F8948C91209582238C939FBF0895AF
:100ED0009FB7F8948C91822B8C939FBF0895482FD5
:100EE00050E0CA0182559F4FFC012491CA018656E9
:100EF0009F4FFC0134914A575F4FFA019491992317
:100F000009F444C0222351F1233071F0243028F435
:100F10002130A1F0223011F514C02630B1F0273075
:100F2000C1F02430D9F404C0809180008F7703C0D1
:100F3000809180008F7D8093800010C084B58F7772
:100F400002C084B58F7D84BD09C08091B0008F77C9
:100F500003C08091B0008F7D8093B000E92FF0E056
:100F6000EE0FFF1FEE58FF4FA591B491662341F499
:100F70009FB7F8948C91309583238C939FBF0895ED
:100F80009FB7F8948C91832B8C939FBF08951F92E9
:100F90000F920FB60F9211242F933F934F938F937D
:100FA0009F93EF93FF934091C600E0915102F0911F
:100FB000520231969F012F77307031978091530202
:100FC000909154022817390739F0EF52FE4F4083B1
:100FD0003093520220935102FF91EF919F918F9194
:100FE0004F913F912F910F900FBE0F901F9018952A
:100FF000CF93DF93EC019A01AB01E885F9852030AE
:1010000081EE380780E0480780E0580709F449C0BE
:1010100081E090E00A8802C0880F991F0A94E2F7E5
:10102000808360E079E08DE390E00E94A10B215085
:10103000304040405040CA01B90122E030E040E079
:1010400050E00E94A10BEC81FD813083EE81FF8195
:101050002083EA85FB85208141E050E0CA010E84AF
:1010600002C0880F991F0A94E2F7282B2083EA8593
:10107000FB852081CA010F8402C0880F991F0A9442
:10108000E2F7282B2083EA85FB858081088802C04F
:10109000440F551F0A94E2F7842B8083DF91CF9190
:1010A0000895108220E130E0CECFDC011296ED9160
:1010B000FC911397E058FF4F2191319180819181EC
:1010C000281B390B2F773070C9010895DC01129667
:1010D000ED91FC911397EE57FF4F20813181929152
:1010E0008291E058F0408217930719F42FEF3FEFF9
:1010F00005C0E20FF31F8081282F30E0C901089559
:10110000DC011296ED91FC911397DF01AE57BF4FB2
:101110002D913C911197E058FF4F80819181E058CB
:10112000F0408217930719F42FEF3FEF0BC0E20F47
:10113000F31F80812F5F3F4F2F7730702D933C93AB
:10114000282F30E0C9010895DC011296ED91FC9141
:101150001397EE57FF4F8081918192938293089568
:10116000FC01A085B18521898C9190E0022E02C0FE
:10117000959587950A94E2F780FFF6CF0484F5856C
:10118000E02D608308958FE891E09093560280935C
:10119000550281ED91E0909358028093570285ECBF
:1011A00090E090935A028093590284EC90E09093DF
:1011B0005C0280935B0280EC90E090935E028093EF
:1011C0005D0281EC90E09093600280935F0286EC78
:1011D00090E0909362028093610284E080936302C6
:1011E00083E08093640287E08093650285E08093CA
:1011F000660281E08093670208950E940E070E94B4
:10120000F3030E94DD03FDCF0F931F93CF93DF9372
:101210008C01EB0109C02196D801ED91FC91019060
:10122000F081E02DC801099568816623A1F7DF915F
:10123000CF911F910F910895EF92FF920F931F93FB
:10124000CF93DF938C017B01EA010CC0D7016D9134
:101250007D01D801ED91FC910190F081E02DC80154
:1012600009952197209791F7DF91CF911F910F91C9
:10127000FF90EF900895DC01ED91FC910280F381E5
:10128000E02D09950895CF92DF92EF92FF920F9390
:101290001F93CF93DF936C017B01C0E0D0E00EC0C1
:1012A000D601ED91FC9100811181C701BE010E9420
:1012B000E30A682FC601F80109952196F701848198
:1012C0009581C817D90760F3DF91CF911F910F91D6
:1012D000FF90EF90DF90CF9008952F923F924F9222
:1012E0005F926F927F928F929F92AF92BF92CF92B6
:1012F000DF92EF92FF920F931F93DF93CF93CDB7BF
:10130000DEB7A0970FB6F894DEBF0FBECDBF1C01AD
:101310006A017B01411551056105710549F440E3FE
:1013200050E060E070E020E030E00E94070A56C024
:10133000882499245401422E55246624772401E000
:1013400010E00C0F1D1F080D191DC701B601A301E8
:1013500092010E947F0BF80160830894811C911C0C
:10136000A11CB11CC701B601A30192010E947F0B11
:10137000C901DA016C017D01C114D104E104F10459
:10138000F1F681E0E82EF12CEC0EFD1EE80CF91CC4
:101390003E010894611C711CD501C4010197A1098B
:1013A000B1096C01C818D90816C0F601EE0DFF1D71
:1013B00040814A3010F4405D01C0495C552747FD2B
:1013C0005095652F752FC10120E030E00E94070A7B
:1013D0000894E108F1086E147F0439F7A0960FB65F
:1013E000F894DEBF0FBECDBFCF91DF911F910F915B
:1013F000FF90EF90DF90CF90BF90AF909F908F9035
:101400007F906F905F904F903F902F900895EF9254
:10141000FF920F931F93CF93DF93EC017A018B011F
:101420002115310541F4E881F9810190F081E02D29
:10143000642F09951BC02A303105B1F477FF10C025
:101440004DE250E060E070E020E030E00E94070AEA
:1014500010950095F094E094E11CF11C011D111D04
:10146000CE01B801A7012AE00E946D09DF91CF915A
:101470001F910F91FF90EF900895EF92FF920F93BD
:101480001F93E62E9A01FF24E7FCF0940F2D1F2DE9
:10149000B801A7010E94070A1F910F91FF90EF90DA
:1014A00008950F931F938C014DE050E060E070E0D1
:1014B00020E030E00E94070AC8014AE050E060E006
:1014C00070E020E030E00E94070A1F910F9108951C
:1014D0000F931F938C010E943B09C8010E94510A7F
:1014E0001F910F9108950F931F938C010E94430940
:1014F000C8010E94510A1F910F910895CF92DF9267
:10150000EF92FF920F931F938C01C62E9A01DD2458
:10151000C7FCD094ED2CFD2CB701A6010E94070A50
:10152000C8010E94510A1F910F91FF90EF90DF9028
:10153000CF9008952F923F924F925F926F927F9239
:101540008F929F92AF92BF92CF92DF92EF92FF92D3
:101550000F931F93DF93CF93CDB7DEB73B014C01C1
:1015600019012A016D897E898F89988D6A197B09F5
:101570008C099D09621A730A840A950AA4019301D1
:101580000E94410BE218F30804091509A80197010C
:101590000E94A10B2A0D3B1D4C1D5D1DB901CA0106
:1015A000CF91DF911F910F91FF90EF90DF90CF903F
:1015B000BF90AF909F908F907F906F905F904F9073
:1015C0003F902F900895FC010190F081E02DE60FEF
:1015D000F71F80810895DC01FB0114962D913C9149
:1015E0001597848195812817390711F080E00BC089
:1015F000608171818D919C910E948F019C0180E09E
:10160000232B09F481E090E00895CF93DF93EC0160
:10161000CB017B836A8301960E948D009983888326
:10162000009721F41B821A821D821C82DF91CF91C8
:1016300008950F931F93CF93DF938C01EB016115F6
:10164000710511F4C1E8D1E0FE0101900020E9F735
:101650003197EC1BFD0BD8011596FC93EE93149774
:10166000C801BF010E94050BF8018081918100979C
:1016700019F0BE010E949801DF91CF911F910F9147
:101680000895629FD001739FF001829FE00DF11DCC
:10169000649FE00DF11D929FF00D839FF00D749FEC
:1016A000F00D659FF00D9927729FB00DE11DF91F98
:1016B000639FB00DE11DF91FBD01CF0111240895F5
:1016C000991B79E004C0991F961708F0961B881F94
:1016D0007A95C9F78095089597FB092E07260AD0B9
:1016E00077FD04D049D006D000201AF4709561959A
:1016F0007F4F0895F6F7909581959F4F0895A1E249
:101700001A2EAA1BBB1BFD010DC0AA1FBB1FEE1F7B
:10171000FF1FA217B307E407F50720F0A21BB30BC6
:10172000E40BF50B661F771F881F991F1A9469F742
:1017300060957095809590959B01AC01BD01CF019E
:10174000089597FB092E05260ED057FD04D0D7DF4C
:101750000AD0001C38F450954095309521953F4FA4
:101760004F4F5F4F0895F6F790958095709561956E
:101770007F4F8F4F9F4F0895AA1BBB1B51E107C09E
:10178000AA1FBB1FA617B70710F0A61BB70B881F11
:10179000991F5A95A9F780959095BC01CD010895A0
:1017A000EE0FFF1F0590F491E02D0994F894FFCF00
:1017B00063616D0070726F6A0070726F6A5F646956
:1017C00072656374696F6E202D3E200063616D5FEA
:1017D000646972656374696F6E202D3E0070726F6C
:1017E0006A6563746F7228290063616D6572612890
:1017F0002900636F6E6E6563742829004465627505
:101800006767696E6720656E61626C656400626C13
:1018100061636B5F6672616D65282900436F6D6D52
:10182000616E642000206E6F7420666F756E642E8A
:10183000000020006C02000001017A00000000B0EE
:0E1840000804091C09550880086608A4080061
:00000001FF
